0000004021320005                  VZW V.V.A.VLAAMSE VER.    GEBABEBB   00424419639 00000                                       2
12013BE62001238123861                  EUR0000000107292070010213VZW V.V.A.VLAAMSE VER.                                       009
21000100000001300000363        000000000004000004021300150000024151 /13BC NJ KESSEL-LO  40?                        04021301301 0
2200010000                                                                                        KREDBEBB                   1 0
2300010000BE88438105160141                  EURPHILIPS CHRISTEL                                                              0 1
31000100010001300000363        001500001001PHILIPS CHRISTEL                                                                  1 0
3200010001DORPSSTRAAT 179 B001               3078 MEERBEEK                                                                   0 0
21000200000001300000364        000000000004000004021300150000026422/13 BC NJ KESSEL-LO                             04021301301 0
2300020000330071313747 EUR                     VAN DEN BROECK KONINGS                                                        0 1
31000200010001300000364        001500001001VAN DEN BROECK KONINGS                                                            1 0
3200020001VAN RODESTRAAT 46                  3010 KESSEL-LO                                                                  0 0
21000300000001300000365        000000000003800004021300150000024151 / LIDGELD 2013  38?                            04021301301 0
2200030000                                                                                        KREDBEBB                   1 0
2300030000BE88438105160141                  EURPHILIPS CHRISTEL                                                              0 1
31000300010001300000365        001500001001PHILIPS CHRISTEL                                                                  1 0
3200030001DORPSSTRAAT 179 B001               3078 MEERBEEK                                                                   0 0
21000400000001300000366        000000000003800004021300150000026422 / LIDGELD 2013                                 04021301301 0
2300040000330071313747 EUR                     VAN DEN BROECK KONINGS                                                        0 1
31000400010001300000366        001500001001VAN DEN BROECK KONINGS                                                            1 0
3200040001VAN RODESTRAAT 46                  3010 KESSEL-LO                                                                  0 0
21000500000001300000367        0000000000038000040213001500000VVVA 19684 / LIDGELD 2013                            04021301301 0
2200050000                                                                                        BPOTBEB1                   1 0
2300050000BE17000158985121                  EURMEVR. KRISTINE WINDELINCKX                                                    0 1
31000500010001300000367        001500001001MEVR. KRISTINE WINDELINCKX                                                        1 0
3200050001BRUGGELANDENSTRAAT, 33             3120 TREMELO                                                                    0 0
21000600000001300000368        0000000000038000040213001500000VVA 1577 / LIDGELD 2013                              04021301301 0
2200060000                                                                                        AXABBE22                   1 0
2300060000BE72750932281916                  EURBOSMANS FRANK                                                                 0 1
31000600010001300000368        001500001001BOSMANS FRANK                                                                     1 0
3200060001WERCHTERPLEIN 1 / 102              3118 WERCHTER                                                                   0 0
21000700000001300000369        0000000000038000040213001500000LIDNR 6978 LID 2013                                  04021301301 0
2300070000001139333001 EUR                     VERBRAECKEN INGRID                                                            0 1
31000700010001300000369        001500001001VERBRAECKEN INGRID                                                                1 0
3200070001EUROPAPLEIN 19                     1800 VILVOORDE                                                                  0 0
21000800000001300000370        0000000000035000040213001500001101213438196778                                      04021301301 0
2200080000                                                                                        KREDBEBB                   1 0
2300080000BE78737025476586                  EURJANSSENS MELISSA                                                              0 1
31000800010001300000370        001500001001JANSSENS MELISSA                                                                  1 0
3200080001OUDE LEUZESESTEENWEG 67            9600 RONSE                                                                      0 0
21000900000001300000371        0000000000035000040213001500000MECHELEN DEC 2012 EN JAN 2013                        04021301301 0
2200090000                                                                                        ARSPBE22                   1 0
2300090000BE87979338044294                  EURMEVROUW VAN VOOREN AN                                                         0 1
31000900010001300000371        001500001001MEVROUW VAN VOOREN AN                                                             1 0
320009000111 KASTANJEDREEF                   2220 HEIST-OP-DEN-BERG                                                          0 0
21001000000001300000372        0000000000035000040213001500001101213168284477                                      04021301301 0
2300100000220033822825 EUR                     BIRRELL KIRSTEN                                                               0 1
31001000010001300000372        001500001001BIRRELL KIRSTEN                                                                   1 0
3200100001FRANSELEI 53                       2950 KAPELLEN                                                                   0 0
21001100000001300000373        0000000000017230040213001500000TOEKOMSTFONDS                                        04021301301 0
2200110000                                                                                        ARSPBE22                   1 0
2300110000BE15979434727430                  EURTANDARTS MEERSCHAUT                                                           0 1
31001100010001300000373        001500001001TANDARTS MEERSCHAUT                                                               1 0
3200110001107 LEPELSTRAAT                    9660 BRAKEL                                                                     0 0
21001200000001300000374        000000000001600004021300150000026373/13 AUTISME VERTELD                             04021301301 0
2200120000                                                                                        KREDBEBB                   1 0
2300120000BE26734117110129                  EURVERVECKEN-DE BOSSCHER M + M                                                   0 1
31001200010001300000374        001500001001VERVECKEN-DE BOSSCHER M + M                                                       1 0
3200120001VROENENBOSSTRAAT 113               1653 DWORP                                                                      0 0
21001300000001300000375        0000000000015000040213001500001101213928450744                                      04021301301 0
2300130000220069064844 EUR                     DE GOMME FRANCOISE                                                            0 1
31001300010001300000375        001500001001DE GOMME FRANCOISE                                                                1 0
3200130001VENNEBORGLAAN 131                  2100 ANTWERPEN                                                                  0 0
21001400000001300000376        0000000000015000040213001500001101213478526449                                      04021301301 0
2300140000063118356405 EUR                     KNAEPKENS - VERBEECK                                                          0 1
31001400010001300000376        001500001001KNAEPKENS - VERBEECK                                                              1 0
3200140001KORTRIJKSESTRAAT 112               8020 OOSTKAMP                                                                   0 0
21001500000001300000377        0000000000014870040213001500000GIFT                                                 04021301301 0
2200150000                                                                                        HBKABE22                   1 0
2300150000BE26880273218129                  EURVAN STEENBERGEN MIEKE                                                         0 1
31001500010001300000377        001500001001VAN STEENBERGEN MIEKE                                                             1 0
3200150001ROOD KRUISSTRAAT 61                2300 TURNHOUT                                                                   0 0
21001600000001300000378        0000000000010000040213001500000                                                     04021301301 0
2300160000063996509428 EUR                     BAYENS RONNY                                                                  0 1
31001600010001300000378        001500001001BAYENS RONNY                                                                      1 0
3200160001KLUITINGSTRAAT 70                  1800 VILVOORDE                                                                  0 0
21001700000001300000379        0000000000010000040213001500000                                                     04021301301 0
2200170000                                                                                        VDSPBE91                   1 0
2300170000BE44890734116845                  EURVANSTEENHUYSE JACQUELINE                                                      0 1
31001700010001300000379        001500001001VANSTEENHUYSE JACQUELINE                                                          1 0
3200170001PEERSTRAAT 143                     9000 GENT                                                                       0 0
21001800000001300000380        0000000000008000040213001500000IP 03                                                04021301301 0
2200180000                                                                                        KREDBEBB                   1 0
2300180000BE60450043855170                  EURVELDEMAN-ROBIJNS MARC + INGRID                                                0 1
31001800010001300000380        001500001001VELDEMAN-ROBIJNS MARC + INGRID                                                    1 0
3200180001HASSELTWEG 427                     3600 GENK                                                                       0 0
21001900000001300000381        0000000000007000040213001500000LEVEN ALS  G EEN ANDER                               04021301301 0
2200190000                                                                                        ARSPBE22                   1 0
2300190000BE14973026582983                  EURMEVROUW GULDENTOPS CHRISTEL                                                   0 1
31001900010001300000381        001500001001MEVROUW GULDENTOPS CHRISTEL                                                       1 0
3200190001121 PLANTIN EN MORETUSLEI          2140 BORGERHOUT (ANTWERPEN)                                                     0 0
21002000000001300000382        0000000000006200040213001500000AUTISME                                              04021301301 0
2200200000                                                                                        KREDBEBB                   1 0
2300200000BE90466553872132                  EURDELECLUSE CATHERINE                                                           0 1
31002000010001300000382        001500001001DELECLUSE CATHERINE                                                               1 0
3200200001ELZENLAAN 37                       8500 KORTRIJK                                                                   0 0
21002100000001300000383        0000000000004960040213001500000INVESTERINGSPLAN                                     04021301301 0
2300210000063954186813 EUR                     BENS MAGDALENA                                                                0 1
31002100010001300000383        001500001001BENS MAGDALENA                                                                    1 0
3200210001GRAAF VAN EGMONTSTR 12             8020 OOSTKAMP                                                                   0 0
21002200000001300000384        0000000000004000040213001500000IP 03                                                04021301301 0
2200220000                                                                                        KREDBEBB                   1 0
2300220000BE28733004849020                  EURVAN GUCHT ELISABETH                                                           0 1
31002200010001300000384        001500001001VAN GUCHT ELISABETH                                                               1 0
3200220001EEKHOVENWEG 20                     2840 RUMST                                                                      0 0
21002300000001300000385        0000000000004000040213001500000IP 03                                                04021301301 0
2200230000                                                                                        ARSPBE22                   1 0
2300230000BE44979372008745                  EURM DE TEMMERMAN FILIEP                                                         0 1
31002300010001300000385        001500001001M DE TEMMERMAN FILIEP                                                             1 0
3200230001201 NESTOR DE TIERESTRAAT          9700 EINE                                                                       0 0
21002400000001300000386        0000000000003720040213001500000GIFT-IP                                              04021301301 0
2200240000                                                                                        BPOTBEB1                   1 0
2300240000BE10000119252204                  EURMEVR. KARINE SMETS                                                            0 1
31002400010001300000386        001500001001MEVR. KARINE SMETS                                                                1 0
3200240001LIEVEN DELARUYESTRAAT, 20          9050 LEDEBERG                                                                   0 0
21002500000001300000387        1000000000760560040213001010001101017681151411                                      04021301301 0
2200250000                                                                                        BBRUBEBB                   1 0
2300250000BE18310117300065                  EURNUCLEUS                                                                       0 1
31002500010001300000387        001010001001NUCLEUS                                                                           0 0
21002600000001300000388        1000000000726350030213001010000HUUR 14A - JANUARI                                   04021301301 0
2200260000                                                                                        GEBABEBB                   1 0
2300260000BE65290016895296                  EURVZW.BEGYNHOF STE-ELISABETH                                                    0 1
31002600010001300000388        001010001001VZW.BEGYNHOF STE-ELISABETH                                                        1 0
3200260001GROOT BEGIJNHOF 67                 9040 SINT-AMANDSBERG                                                            0 0
21002700000001300000389        1000000000514270030213001010000BASISCURSUS HERENTALS: HONORARIUM EN VERPLAATSINGSKOS04021301301 0
2200270000TEN                                                                                     GEBABEBB                   1 0
2300270000BE08230055648213                  EURNUYTS-BAUWENS                                                                 0 1
31002700010001300000389        001010001001NUYTS-BAUWENS                                                                     1 0
3200270001HORSTSTRAAT 27 A                   2370 ARENDONK                                                                   0 0
21002800000001300000390        1000000000481630030213001010000TERUGBETALING FOUTIEVE STORTING 2012-12-10           04021301301 0
2200280000                                                                                        GEBABEBB                   1 0
2300280000BE17001410808921                  EURVAN ROY-NERINCKX                                                              0 1
31002800010001300000390        001010001001VAN ROY-NERINCKX                                                                  1 0
3200280001BLOEMISTENSTRAAT 4                 1731 RELEGEM                                                                    0 0
21002900000001300000391        1000000000332750040213001010000DP90500130145074                                     04021301301 0
2200290000                                                                                        BBRUBEBB                   1 0
2300290000BE80385003221877                  EURVANDECASTEELE PATTIJN                                                         0 1
31002900010001300000391        001010001001VANDECASTEELE PATTIJN                                                             0 0
21003000000001300000392        1000000000132240030213001010001101152218877778                                      04021301301 0
2200300000                                                                                        GEBABEBB                   1 0
2300300000BE04001646704231                  EURBULEX SERVICES NV                                                             0 1
31003000010001300000392        001010001001BULEX SERVICES NV                                                                 1 0
3200300001GOLDEN HOPESTRAAT 15               1620 DROGENBOS                                                                  0 0
21003100000001300000393        1000000000125600040213001010001101130100002235                                      04021301301 0
2200310000                                                                                        GKCCBEBB                   1 0
2300310000BE59068217609726                  EUREVONET                                                                        0 1
31003100010001300000393        001010001001EVONET                                                                            0 0
21003200000001300000394        1000000000116470030213001010000INLEEF ANTWERPEN: HONORARIUM EN VERPLAATSINGSKOSTEN  04021301301 0
2200320000                                                                                        GEBABEBB                   1 0
2300320000BE08230055648213                  EURNUYTS-BAUWENS                                                                 0 1
31003200010001300000394        001010001001NUYTS-BAUWENS                                                                     1 0
3200320001HORSTSTRAAT 27 A                   2370 ARENDONK                                                                   0 0
21003300000001300000395        1000000000115000040213001010000FACTUUR 19000519 - CREDITNOTA 19500022               04021301301 0
2200330000                                                                                        KREDBEBB                   1 0
2300330000BE46467507033336                  EURDE SPIL ROESELARE                                                             0 1
31003300010001300000395        001010001001DE SPIL ROESELARE                                                                 0 0
21003400000001300000396        1000000000085380040213005010001107038411030808040213029417477966                  0004021301301 0
22003400000456810810                                                                                                         1 0
2300340000210023359975 EUR                     SA MOBISTAR NV                                                                0 1
31003400010001300000396        005010001001SA MOBISTAR NV                                                                    1 0
3200340001                                   0000                                                                            0 0
21003500000001300000397        1000000000083900030213001010000BB HERENTALS 2012-11-08 - HONORARIUM EN VERPLAATSINGS04021301301 0
2200350000KOSTEN                                                                                  GEBABEBB                   1 0
2300350000BE39001265716119                  EURVERDONCK THEO                                                                 0 1
31003500010001300000397        001010001001VERDONCK THEO                                                                     1 0
3200350001KOLLEGESTRAAT 96                   2440 GEEL                                                                       0 0
21003600000001300000398        1000000000030920030213001010001101048891210191                                      04021301301 0
2200360000                                                                                        GEBABEBB                   1 0
2300360000BE06290000630622                  EURINTERBR.DIENST VER.INDUSTR                                                    0 1
31003600010001300000398        001010001001INTERBR.DIENST VER.INDUSTR                                                        1 0
3200360001AV.DE TERVUEREN 43                 1040 BRUXELLES                                                                  0 0
8013BE62001238123861                  EUR0000000104297980040213                                                                0
9               000170000000003505070000000000510980                                                                           1
0000004021320005                  VZW V.V.A.VLAAMSE VER.    GEBABEBB   00424419639 00000                                       2
10019001238121235 EUR0BE                  0000000010354310010213VZW V.V.A.VLAAMSE VER.                                       029
21000100000001300000044        000000000002000004021300150000012488                                                04021301901 0
2200010000                                                                                        AXABBE22                   1 0
2300010000BE84750939367259                  EURVANTHIEGHEM THERESE                                                           0 1
31000100010001300000044        001500001001VANTHIEGHEM THERESE                                                               1 0
3200010001OEKENSESTRAAT 54                   8800 ROESELARE                                                                  0 0
21000200000001300000045        0000000000015000040213001500000                                                     04021301901 0
2300020000645127740850 EUR                     DR.M.CASTEELS BVBA                                                            0 1
31000200010001300000045        001500001001DR.M.CASTEELS BVBA                                                                1 0
3200020001WARANDE 52                         9270 LAARNE                                                                     0 0
21000300000001300000046        0000000000010000030213001500000EEN STEUNTJE IN DE RUG                               04021301901 0
2300030000001077083855 EUR                     DEPREZ-HUISSEUNE                                                              0 1
31000300010001300000046        001500001001DEPREZ-HUISSEUNE                                                                  1 0
3200030001STUIVERSTRAAT 35                   8400 OOSTENDE                                                                   0 0
21000400000001300000047        0000000000005000040213001500000137247-20998002-24                                   04021301901 0
2200040000                                                                                        KREDBEBB                   1 0
2300040000BE84734142119759                  EUREECKELAERS JAAK                                                               0 1
31000400010001300000047        001500001001EECKELAERS JAAK                                                                   1 0
3200040001SCHUURVELD 2                       1840 LONDERZEEL                                                                 0 0
21000500000001300000048        0000000000004000040213001500000819547                                               04021301901 0
2200050000                                                                                        KREDBEBB                   1 0
2300050000BE46431095309136                  EURDOLUSIC EDUARD                                                                0 1
31000500010001300000048        001500001001DOLUSIC EDUARD                                                                    1 0
3200050001STATIONSSTRAAT 31                  3018 WIJGMAAL (BRABANT)                                                         0 0
21000600000001300000049        0000000000003000030213001500000                                                     04021301901 0
2300060000001037673462 EUR                     BROOS CHANTAL                                                                 0 1
31000600010001300000049        001500001001BROOS CHANTAL                                                                     1 0
3200060001O.-L.-VROUWESTRAAT 18 B1           2500 LIER                                                                       0 0
8019001238121235 EUR0BE                  0000000010411310040213                                                                0
9               000029000000000000000000000000057000                                                                           1
0000002021320005                  VZW VLAAMSE VERENIGING    GEBABEBB   00424419639 00000                                       2
10024001216200043 EUR0BE                  0000000018994850010213VZW VLAAMSE VERENIGING                                       028
21000100000001300000218        0000000000013000020213001500000THUISBEGELEIDINGSSESSIE                              02021302401 0
2300010000210052537474 EUR                     METSUE ROLAND                                                                 0 1
31000100010001300000218        001500001001METSUE ROLAND                                                                     1 0
3200010001ONTHAALSQUARE 3 9                  1140 EVERE                                                                      0 0
8024001216200043 EUR0BE                  0000000019007850020213                                                                0
9               000006000000000000000000000000013000                                                                           1
0000002021320005                  VZW V.V.A.VLAAMSE VER.    GEBABEBB   00424419639 00000                                       2
10027001238122245 EUR0BE                  0000000070627650010213VZW V.V.A.VLAAMSE VER.                                       028
21000100000001300000750        000000000004000002021300150000012487                                                02021302701 0
2200010000                                                                                        GEBABEBB                   1 0
2300010000BE60230016145870                  EURELST KRISTINA                                                                 0 1
31000100010001300000750        001500001001ELST KRISTINA                                                                     1 0
3200010001KONING ALBERTLAAN 33 0001          3010 LEUVEN                                                                     0 0
21000200000001300000751        000000000004000002021300150000012488                                                02021302701 0
2200020000                                                                                        GEBABEBB                   1 0
2300020000BE89001236438485                  EURDHAENENS-DE BOOS                                                              0 1
31000200010001300000751        001500001001DHAENENS-DE BOOS                                                                  1 0
3200020001STEENAKKER 6                       9000 GENT                                                                       0 0
21000300000001300000752        000000000003000002021300150000012488                                                02021302701 0
2200030000                                                                                        GEBABEBB                   1 0
2300030000BE08280041882213                  EURDE VOLDERE-CLARYSSE                                                           0 1
31000300010001300000752        001500001001DE VOLDERE-CLARYSSE                                                               1 0
3200030001GRENSSTRAAT 14                     8730 BEERNEM                                                                    0 0
21000400000001300000753        00000000000050000202130015000001114447                                              02021302701 0
2300040000210069673132 EUR                     PUTTEMANS-JUNIUS                                                              0 1
31000400010001300000753        001500001001PUTTEMANS-JUNIUS                                                                  1 0
3200040001VELDKANTSTRAAT 6 B004              1850 GRIMBERGEN                                                                 0 0
8027001238122245 EUR0BE                  0000000070742650020213                                                                0
9               000021000000000000000000000000115000                                                                           1
0000001021320005                  VZW V.V.A.VLAAMSE VER.    GEBABEBB   00424419639 00000                                       2
10026001238122245 EUR0BE                  0000000068526650310113VZW V.V.A.VLAAMSE VER.                                       027
21000100000001300000680        000000000007500001021300150000012488                                                01021302601 0
2200010000                                                                                        KREDBEBB                   1 0
2300010000BE08446001287113                  EURDE GROOTE YVONNE                                                              0 1
31000100010001300000680        001500001001DE GROOTE YVONNE                                                                  1 0
3200010001VOSSENBERGLAAN 18                  9070 DESTELBERGEN                                                               0 0
21000200000001300000681        00000000000500000102130015000009040 GENT                                            01021302601 0
2200020000                                                                                        KREDBEBB                   1 0
2300020000BE15402701158130                  EURDE WISPELEIR MARCEL                                                           0 1
31000200010001300000681        001500001001DE WISPELEIR MARCEL                                                               1 0
3200020001KASTANJELAAN 30                    2630 AARTSELAAR                                                                 0 0
21000300000001300000682        000000000005000001021300150000012488                                                01021302601 0
2200030000                                                                                        BBRUBEBB                   1 0
2300030000BE91320047598576                  EURDE H RUDOLF VAN DEN BERGH                                                     0 1
31000300010001300000682        001500001001DE H RUDOLF VAN DEN BERGH                                                         1 0
3200030001BANKSTR 76                         2811 HOMBEEK                                                                    0 0
21000400000001300000683        000000000005000001021300150000012487                                                01021302601 0
2200040000                                                                                        GEBABEBB                   1 0
2300040000BE23001036948891                  EURSCHREVER-VAN DEN DRIESSCHE                                                    0 1
31000400010001300000683        001500001001SCHREVER-VAN DEN DRIESSCHE                                                        1 0
3200040001PAPIERMOLENSTRAAT 64               9500 GERAARDSBERGEN                                                             0 0
21000500000001300000684        000000000005000001021300150000012488                                                01021302601 0
2200050000                                                                                        SPAABE22                   1 0
2300050000BE52853802672709                  EURDE WINDT ROGER                                                                0 1
31000500010001300000684        001500001001DE WINDT ROGER                                                                    1 0
3200050001VOORSTRAAT 114                     9970 KAPRIJKE                                                                   0 0
21000600000001300000685        000000000005000001021300150000012260 ATTEST AUB.                                    01021302601 0
2200060000                                                                                        GEBABEBB                   1 0
2300060000BE33285034611346                  EURVERVAET BLANCHE                                                               0 1
31000600010001300000685        001500001001VERVAET BLANCHE                                                                   1 0
3200060001GUSTAVE ROYERSLAAN 116 1           9600 RONSE                                                                      0 0
21000700000001300000686        000000000005000001021300150000012488                                                01021302601 0
2200070000                                                                                        GKCCBEBB                   1 0
2300070000BE04788522868031                  EURVAN DEN BROECK JEANNE                                                         0 1
31000700010001300000686        001500001001VAN DEN BROECK JEANNE                                                             1 0
3200070001DUFFELSESTEENWEG 61                2860 ST-KATELIJNE-WAVER                                                         0 0
21000800000001300000687        000000000005000001021300150000012487                                                01021302601 0
2200080000                                                                                        GKCCBEBB                   1 0
2300080000BE36061767542081                  EURDEKNOCK CHRISTIAN                                                             0 1
31000800010001300000687        001500001001DEKNOCK CHRISTIAN                                                                 1 0
3200080001LIEVEN BAUWENSSTRAAT 41            8200 SINT-ANDRIES                                                               0 0
21000900000001300000688        000000000005000001021300150000012488                                                01021302601 0
2200090000                                                                                        AXABBE22                   1 0
2300090000BE93750948757667                  EURVAN AVERBEKE CAMIEL                                                           0 1
31000900010001300000688        001500001001VAN AVERBEKE CAMIEL                                                               1 0
3200090001LEKESTRAAT 84                      8680 KOEKELARE                                                                  0 0
21001000000001300000689        000000000005000001021300150000012488                                                01021302601 0
2200100000                                                                                        GEBABEBB                   1 0
2300100000BE89001085312485                  EURNOYEZ PHILIP                                                                  0 1
31001000010001300000689        001500001001NOYEZ PHILIP                                                                      1 0
3200100001HOOILAND 9                         9030 GENT                                                                       0 0
21001100000001300000690        000000000004500001021300150000012488                                                01021302601 0
2200110000                                                     6100-20130131-1311110186           BPOTBEB1                   1 0
2300110000BE74000044572207                  EURDE SCHEPPER GABRIEL                                                           0 1
31001100010001300000690        001500001001DE SCHEPPER GABRIEL                                                               1 0
3200110001SPANJAARDSTRAAT, 10                8000 BRUGGE                                                                     0 0
21001200000001300000691        000000000004000001021300150000012488                                                01021302601 0
2200120000                                                                                        GEBABEBB                   1 0
2300120000BE79220040002533                  EURDILLEN MARIA                                                                  0 1
31001200010001300000691        001500001001DILLEN MARIA                                                                      1 0
3200120001V. ADRIAENSSENSSTR 53              2900 SCHOTEN                                                                    0 0
21001300000001300000692        00000000000400000102130015000001248                                                 01021302601 0
2200130000                                                                                        KREDBEBB                   1 0
2300130000BE61737519160817                  EURDEBUYSSCHER CHRISTINE                                                         0 1
31001300010001300000692        001500001001DEBUYSSCHER CHRISTINE                                                             1 0
3200130001KANARIEBERG 11                     9600 RONSE                                                                      0 0
21001400000001300000693        000000000004000001021300150000012488                                                01021302601 0
2200140000                                                                                        KREDBEBB                   1 0
2300140000BE15733140116530                  EURWYNS SOPHIA                                                                   0 1
31001400010001300000693        001500001001WYNS SOPHIA                                                                       1 0
3200140001PARKIETDREEF 14                    2990 WUUSTWEZEL                                                                 0 0
21001500000001300000694        000000000004000001021300150000012488                                                01021302601 0
2200150000                                                                                        KREDBEBB                   1 0
2300150000BE66731003236943                  EURHUYGENS LEA                                                                   0 1
31001500010001300000694        001500001001HUYGENS LEA                                                                       1 0
3200150001KONGOSTRAAT 162                    2300 TURNHOUT                                                                   0 0
21001600000001300000695        000000000004000001021300150000012488                                                01021302601 0
2200160000                                                                                        KREDBEBB                   1 0
2300160000BE30441059098111                  EURREDANT EMELIENNE                                                              0 1
31001600010001300000695        001500001001REDANT EMELIENNE                                                                  1 0
3200160001KLOOSTERSTRAAT 2/002               9820 MERELBEKE                                                                  0 0
21001700000001300000696        000000000004000001021300150000012488                                                01021302601 0
2200170000                                                                                        KREDBEBB                   1 0
2300170000BE94438507426114                  EURTHIEBAUT-SABLON W + M                                                         0 1
31001700010001300000696        001500001001THIEBAUT-SABLON W + M                                                             1 0
3200170001NIEUWBAAN 29                       1742 SINT-KATHERINA-LOMBEEK                                                     0 0
21001800000001300000697        000000000004000001021300150000012488                                                01021302601 0
2200180000                                                                                        KREDBEBB                   1 0
2300180000BE32428612222102                  EURAERTS GEORGES                                                                 0 1
31001800010001300000697        001500001001AERTS GEORGES                                                                     1 0
3200180001SINT-PIETERSSTRAAT 22              3110 ROTSELAAR                                                                  0 0
21001900000001300000698        000000000004000001021300150000012488                                                01021302601 0
2200190000                                                                                        KREDBEBB                   1 0
2300190000BE94737004468814                  EURFLAMEE HENK                                                                   0 1
31001900010001300000698        001500001001FLAMEE HENK                                                                       1 0
3200190001LEOPOLDLAAN 56                     9500 GERAARDSBERGEN                                                             0 0
21002000000001300000699        000000000004000001021300150000012488                                                01021302601 0
2200200000                                                                                        KREDBEBB                   1 0
2300200000BE44737212051945                  EURVERRIEST GUSTAAF                                                              0 1
31002000010001300000699        001500001001VERRIEST GUSTAAF                                                                  1 0
3200200001BAASRODEVEERSTRAAT 12              9220 MOERZEKE                                                                   0 0
21002100000001300000700        000000000004000001021300150000012488                                                01021302601 0
2200210000                                                                                        KREDBEBB                   1 0
2300210000BE55733007218244                  EURCOLIGNON-STRYCKMANS JEAN + MARY                                               0 1
31002100010001300000700        001500001001COLIGNON-STRYCKMANS JEAN + MARY                                                   1 0
3200210001DE MERODELEI 9 B07                 2600 BERCHEM (ANTWERPEN)                                                        0 0
21002200000001300000701        000000000004000001021300150000012488                                                01021302601 0
2200220000                                                     6100-20130131-1311137730           BPOTBEB1                   1 0
2300220000BE20000086422956                  EURMADDENS ERIC                                                                  0 1
31002200010001300000701        001500001001MADDENS ERIC                                                                      1 0
3200220001KOKELAARSTRAAT, 28                 8800 ROESELARE                                                                  0 0
21002300000001300000702        000000000004000001021300150000012488                                                01021302601 0
2200230000                                                     6100-20130131-1311130659           BPOTBEB1                   1 0
2300230000BE60000025537470                  EURLAPORTE-SERNEELS                                                              0 1
31002300010001300000702        001500001001LAPORTE-SERNEELS                                                                  1 0
3200230001GODSHERTOGESTRAAT, 1               3201 LANGDORP                                                                   0 0
21002400000001300000703        000000000004000001021300150000012488                                                01021302601 0
2200240000                                                     6100-20130131-1311129942           BPOTBEB1                   1 0
2300240000BE23000020660491                  EURDE PATER WILHELMUS                                                            0 1
31002400010001300000703        001500001001DE PATER WILHELMUS                                                                1 0
3200240001KONING LEOPOLD III-LAAN,26         3001 LEUVEN                                                                     0 0
21002500000001300000704        000000000004000001021300150000012488                                                01021302601 0
2200250000                                                     6100-20130131-1311113741           BPOTBEB1                   1 0
2300250000BE36000087987181                  EURBOEGEMANS MARIA                                                               0 1
31002500010001300000704        001500001001BOEGEMANS MARIA                                                                   1 0
3200250001HENEGAUWLAAN, 39                   3500 HASSELT                                                                    0 0
21002600000001300000705        000000000004000001021300150000012488                                                01021302601 0
2200260000                                                                                        BPOTBEB1                   1 0
2300260000BE64000059534152                  EURDHR. GEERT THIERS                                                             0 1
31002600010001300000705        001500001001DHR. GEERT THIERS                                                                 1 0
3200260001BLOEMENLEI, 10                     2930 BRASSCHAAT                                                                 0 0
21002700000001300000706        000000000004000001021300150000012488                                                01021302601 0
2200270000                                                     6100-20130131-1311106477           BPOTBEB1                   1 0
2300270000BE84000082194059                  EURVANDERPERRE JOANNA                                                            0 1
31002700010001300000706        001500001001VANDERPERRE JOANNA                                                                1 0
3200270001KONIJNESTRAAT, 136                 1602 SINT-PIETERS-LEEUW                                                         0 0
21002800000001300000707        000000000004000001021300150000012488                                                01021302601 0
2200280000                                                     6100-20130131-1311125991           BPOTBEB1                   1 0
2300280000BE63000103703508                  EURVAN DER BURGHT MARIA                                                          0 1
31002800010001300000707        001500001001VAN DER BURGHT MARIA                                                              1 0
3200280001LEO DE BETHUNELAAN, 74 /2          9300 AALST                                                                      0 0
21002900000001300000708        000000000004000001021300150000012488                                                01021302601 0
2200290000                                                     6100-20130131-1311138468           BPOTBEB1                   1 0
2300290000BE07000054365466                  EURWOESTENBORGHS HILDA                                                           0 1
31002900010001300000708        001500001001WOESTENBORGHS HILDA                                                               1 0
3200290001ANTWERPSESTEENWEG, 141             2350 VOSSELAAR                                                                  0 0
21003000000001300000709        000000000004000001021300150000012488                                                01021302601 0
2200300000                                                     6100-20130131-1311117146           BPOTBEB1                   1 0
2300300000BE08000085050913                  EURVAN THILLO LUDO                                                               0 1
31003000010001300000709        001500001001VAN THILLO LUDO                                                                   1 0
3200300001LAUWHOEVESTRAAT, 25                2540 HOVE                                                                       0 0
21003100000001300000710        000000000004000001021300150000012487                                                01021302601 0
2200310000                                                                                        BBRUBEBB                   1 0
2300310000BE61335024557517                  EURMEVR ANNE SURINX                                                              0 1
31003100010001300000710        001500001001MEVR ANNE SURINX                                                                  1 0
3200310001NAAMSESTEENWEG 131                 3800 ST TRUIDEN                                                                 0 0
21003200000001300000711        000000000004000001021300150000012488                                                01021302601 0
2200320000                                                                                        HBKABE22                   1 0
2300320000BE58880100272179                  EURWYSEUR-POTTIE                                                                 0 1
31003200010001300000711        001500001001WYSEUR-POTTIE                                                                     1 0
3200320001REDERIJKERSSTRAAT, 3               8560 GULLEGEM                                                                   0 0
21003300000001300000712        000000000004000001021300150000012488                                                01021302601 0
2200330000                                                                                        GKCCBEBB                   1 0
2300330000BE65063487208096                  EURVAN BAELEN MARIA                                                              0 1
31003300010001300000712        001500001001VAN BAELEN MARIA                                                                  1 0
3200330001DIESTSESTEENWEG 370                3202 RILLAAR                                                                    0 0
21003400000001300000713        000000000004000001021300150000012488                                                01021302601 0
2200340000                                                                                        GEBABEBB                   1 0
2300340000BE88280055348641                  EURWILLEMS PAUL                                                                  0 1
31003400010001300000713        001500001001WILLEMS PAUL                                                                      1 0
3200340001VULDERSSTRAAT 89                   8000 BRUGGE                                                                     0 0
21003500000001300000714        000000000004000001021300150000012488                                                01021302601 0
2200350000                                                                                        GKCCBEBB                   1 0
2300350000BE67789528239887                  EURVAN MOL RITA                                                                  0 1
31003500010001300000714        001500001001VAN MOL RITA                                                                      1 0
3200350001FLORENT PAUWELSLEI 64              2100 DEURNE (ANTW.)                                                             0 0
21003600000001300000715        000000000004000001021300150000012488                                                01021302601 0
2200360000                                                                                        GKCCBEBB                   1 0
2300360000BE13799502240639                  EURDE GEYTER - VAN WITTENBERG                                                    0 1
31003600010001300000715        001500001001DE GEYTER - VAN WITTENBERG                                                        1 0
3200360001CONDIJSTRAAT 51                    1755 GOOIK                                                                      0 0
21003700000001300000716        000000000004000001021300150000012488                                                01021302601 0
2300370000734131030841 EUR                     BELLEMANS JEANNE                                                              0 1
31003700010001300000716        001500001001BELLEMANS JEANNE                                                                  1 0
3200370001GROTESTRAAT 36                     1540 HERNE                                                                      0 0
21003800000001300000717        000000000004000001021300150000012488                                                01021302601 0
2200380000                                                                                        GEBABEBB                   1 0
2300380000BE57001216276835                  EURDE BIE KOENRAAD                                                               0 1
31003800010001300000717        001500001001DE BIE KOENRAAD                                                                   1 0
3200380001ROLWAGENSTRAAT 18                  2018 ANTWERPEN                                                                  0 0
21003900000001300000718        000000000003000001021300150000012488                                                01021302601 0
2200390000                                                                                        SPAABE22                   1 0
2300390000BE18860006235765                  EURSLEUTJES GREGORIUS                                                            0 1
31003900010001300000718        001500001001SLEUTJES GREGORIUS                                                                1 0
3200390001KNOKKESTRAAT 648                   8300 KNOKKE-HEIST                                                               0 0
21004000000001300000719        000000000002500001021300150000012487                                                01021302601 0
2200400000                                                                                        GEBABEBB                   1 0
2300400000BE12290011782992                  EURBRAL ODETTE                                                                   0 1
31004000010001300000719        001500001001BRAL ODETTE                                                                       1 0
3200400001KORTE MOEIE 57                     9900 EEKLO                                                                      0 0
21004100000001300000720        000000000002000001021300150000012488                                                01021302601 0
2200410000                                                                                        KREDBEBB                   1 0
2300410000BE45738035130489                  EURKLOOSTERZUSTERS VAN MARIA VZW                                                 0 1
31004100010001300000720        001500001001KLOOSTERZUSTERS VAN MARIA VZW                                                     1 0
3200410001SCHOOLSTRAAT 8                     8770 INGELMUNSTER                                                               0 0
21004200000001300000721        000000000002000031011300150000012488                                                01021302601 0
2300420000001006697726 EUR                     CATRY ELIANE                                                                  0 1
31004200010001300000721        001500001001CATRY ELIANE                                                                      1 0
3200420001DAM 39 0022                        8500 KORTRIJK                                                                   0 0
21004300000001300000722        000000000002000001021300150000012487                                                01021302601 0
2200430000                                                                                        BPOTBEB1                   1 0
2300430000BE46000017114436                  EURMEVR. MIEKE GLORIE                                                            0 1
31004300010001300000722        001500001001MEVR. MIEKE GLORIE                                                                1 0
3200430001RIJSELSTRAAT,9/A006                8800 ROESELARE                                                                  0 0
21004400000001300000723        000000000002000001021300150000012488                                                01021302601 0
2200440000                                                     6100-20130131-1311123006           BPOTBEB1                   1 0
2300440000BE34000089025990                  EURGERNAND KATHARINA                                                             0 1
31004400010001300000723        001500001001GERNAND KATHARINA                                                                 1 0
3200440001MADELIEFJESLAAN, 1                 8400 OOSTENDE                                                                   0 0
21004500000001300000724        000000000002000001021300150000012488                                                01021302601 0
2200450000                                                     6100-20130131-1311142041           BPOTBEB1                   1 0
2300450000BE60000087481670                  EURCRUYPLANT JUDITH                                                              0 1
31004500010001300000724        001500001001CRUYPLANT JUDITH                                                                  1 0
3200450001PLAS, 12                           1840 LONDERZEEL                                                                 0 0
21004600000001300000725        000000000002000001021300150000012488                                                01021302601 0
2200460000                                                                                        DEUTBEBE                   1 0
2300460000BE08610901258013                  EURDHR.MEVR. BRISON - VAN GREMBERGHE                                             0 1
31004600010001300000725        001500001001DHR.MEVR. BRISON - VAN GREMBERGHE                                                 1 0
3200460001TASSIJNSLAAN 34                    9100 SINT-NIKLAAS                                                               0 0
21004700000001300000726        000000000002000001021300150000012487                                                01021302601 0
2200470000                                                                                        GEBABEBB                   1 0
2300470000BE12001177628092                  EURDEZEURE JOSEPH                                                                0 1
31004700010001300000726        001500001001DEZEURE JOSEPH                                                                    1 0
3200470001KERSELAAR 54                       8900 IEPER                                                                      0 0
21004800000001300000727        000000000002000001021300150000012488                                                01021302601 0
2200480000                                                                                        GEBABEBB                   1 0
2300480000BE94293015952414                  EURDE CALUWE-MICHELS                                                             0 1
31004800010001300000727        001500001001DE CALUWE-MICHELS                                                                 1 0
3200480001MOLENBERGSTRAAT 55                 9190 STEKENE                                                                    0 0
21004900000001300000728        000000000002000001021300150000012487                                                01021302601 0
2200490000                                                                                        GKCCBEBB                   1 0
2300490000BE17775501199021                  EURDE BRABANDER - VAN GELE                                                       0 1
31004900010001300000728        001500001001DE BRABANDER - VAN GELE                                                           1 0
3200490001KOEIENDREEF 19                     8310 ASSEBROEK                                                                  0 0
21005000000001300000729        000000000002000001021300150000012488                                                01021302601 0
2200500000                                                                                        GEBABEBB                   1 0
2300500000BE67001138594787                  EURTUDTS ROSA                                                                    0 1
31005000010001300000729        001500001001TUDTS ROSA                                                                        1 0
3200500001GUIDO GEZELLESTRAAT 82 23          9470 DENDERLEEUW                                                                0 0
21005100000001300000730        000000000001500001021300150000012487                                                01021302601 0
2200510000                                                     6100-20130131-1311119847           BPOTBEB1                   1 0
2300510000BE55000101602244                  EURMARTENS MAGDA                                                                 0 1
31005100010001300000730        001500001001MARTENS MAGDA                                                                     1 0
3200510001WOUTER HAECKLAAN, 10 /26           2100 DEURNE                                                                     0 0
21005200000001300000731        000000000001500001021300150000012488                                                01021302601 0
2200520000                                                                                        BBRUBEBB                   1 0
2300520000BE15320031550130                  EURUIJLENBROEK WEVERS                                                            0 1
31005200010001300000731        001500001001UIJLENBROEK WEVERS                                                                1 0
3200520001FRANKRIJKLAAN 11                   2400 MOL                                                                        0 0
21005300000001300000732        000000000001500001021300150000012488                                                01021302601 0
2200530000                                                                                        GEBABEBB                   1 0
2300530000BE13001019260539                  EURLANDERLOOS MARIETTE                                                           0 1
31005300010001300000732        001500001001LANDERLOOS MARIETTE                                                               1 0
3200530001V. GOVAERSLAAN 43 5                2170 ANTWERPEN                                                                  0 0
21005400000001300000733        000000000001500001021300150000012488                                                01021302601 0
2300540000230019843994 EUR                     ENGELER HENDRIKUS                                                             0 1
31005400010001300000733        001500001001ENGELER HENDRIKUS                                                                 1 0
3200540001MGR MIERTSSTRAAT 61 3              2460 KASTERLEE                                                                  0 0
21005500000001300000734        000000000001500001021300150000012487                                                01021302601 0
2200550000                                                                                        GKCCBEBB                   1 0
2300550000BE81063496929924                  EURVAN ISVELDT MARIA                                                             0 1
31005500010001300000734        001500001001VAN ISVELDT MARIA                                                                 1 0
3200550001IJSBERGSTRAAT 80                   1701 ITTERBEEK                                                                  0 0
21005600000001300000735        000000000001500001021300150000012488                                                01021302601 0
2200560000                                                                                        GEBABEBB                   1 0
2300560000BE24220038712938                  EURVERHEYEN LUDOVICUS                                                            0 1
31005600010001300000735        001500001001VERHEYEN LUDOVICUS                                                                1 0
3200560001TORENSTRAAT 8 GVL                  2160 WOMMELGEM                                                                  0 0
21005700000001300000736        0000000000012000010213001500000HELPER VAN EEN KIND MET AUTISME                      01021302601 0
2300570000230008428613 EUR                     LAUWERS MADELEINE                                                             0 1
31005700010001300000736        001500001001LAUWERS MADELEINE                                                                 1 0
3200570001PUTSESTEENWEG 23                   2500 LIER                                                                       0 0
21005800000001300000737        000000000001000001021300150000012333 KLEINE HULP                                    01021302601 0
2200580000                                                                                        KREDBEBB                   1 0
2300580000BE04429410079131                  EURVANCASTER ROSA                                                                0 1
31005800010001300000737        001500001001VANCASTER ROSA                                                                    1 0
3200580001EUTERPESTRAAT 11                   1080 SINT-JANS-MOLENBEEK                                                        0 0
21005900000001300000738        000000000001000001021300150000012488                                                01021302601 0
2200590000                                                     6100-20130131-1311109745           BPOTBEB1                   1 0
2300590000BE60000046149970                  EURMONTMORENCY MARIE-JOSE                                                        0 1
31005900010001300000738        001500001001MONTMORENCY MARIE-JOSE                                                            1 0
3200590001ALBERT I-PROMENADE, 65/16          8400 OOSTENDE                                                                   0 0
21006000000001300000739        000000000001000001021300150000012488                                                01021302601 0
2200600000                                                                                        ARSPBE22                   1 0
2300600000BE56979929336288                  EURM AMEYE LOUIS                                                                 0 1
31006000010001300000739        001500001001M AMEYE LOUIS                                                                     1 0
320060000192 FLAMINGOSTRAAT                  9000 GENT                                                                       0 0
21006100000001300000740        000000000001000001021300150000012487                                                01021302601 0
2200610000                                                                                        GKCCBEBB                   1 0
2300610000BE26063018109329                  EURDAMMAN JEANNETTA                                                              0 1
31006100010001300000740        001500001001DAMMAN JEANNETTA                                                                  1 0
3200610001DE RIVIERENDREEF 2                 1083 BRUSSEL                                                                    0 0
21006200000001300000741        0000000000010000010213001500000                                                     01021302601 0
2200620000                                                                                        AXABBE22                   1 0
2300620000BE30800206060111                  EURVANDEREYKEN DANNY                                                             0 1
31006200010001300000741        001500001001VANDEREYKEN DANNY                                                                 1 0
3200620001GROTESTRAAT 354                    3850 WIJER                                                                      0 0
21006300000001300000742        0000000000008000010213001500000MAANDELIJKSE GIFT                                    01021302601 0
2200630000                                                                                        ARSPBE22                   1 0
2300630000BE50979955480418                  EURBRUSSELMANS LEOPOLD                                                           0 1
31006300010001300000742        001500001001BRUSSELMANS LEOPOLD                                                               1 0
32006300014 MARTHE MASSINSTRAAT              2890 SINT-AMANDS                                                                0 0
21006400000001300000743        000000000000600001021300150000012136                                                01021302601 0
2300640000001009022086 EUR                     PUTTEMANS AUGUST                                                              0 1
31006400010001300000743        001500001001PUTTEMANS AUGUST                                                                  1 0
3200640001VOSSEBERGEN 10                     3118 ROTSELAAR                                                                  0 0
21006500000001300000744        000000000000500001021300150000012488                                                01021302601 0
2200650000                                                                                        KREDBEBB                   1 0
2300650000BE19432522487112                  EURVAN DER BIEST JOANNA                                                          0 1
31006500010001300000744        001500001001VAN DER BIEST JOANNA                                                              1 0
3200650001DIEPESTRAAT 17                     9300 AALST                                                                      0 0
21006600000001300000745        000000000000500001021300150000012488                                                01021302601 0
2200660000                                                                                        KREDBEBB                   1 0
2300660000BE90734009304632                  EURDURON MARIE THERESE                                                           0 1
31006600010001300000745        001500001001DURON MARIE THERESE                                                               1 0
3200660001CITROENBOMENLAAN 15                1020 BRUSSEL                                                                    0 0
21006700000001300000746        00000000000050000102130015000005761                                                 01021302601 0
2300670000285058955215 EUR                     BULCKAERT ANGELINA                                                            0 1
31006700010001300000746        001500001001BULCKAERT ANGELINA                                                                1 0
3200670001PRINSESSESTRAAT 92 0002            8870 IZEGEM                                                                     0 0
21006800000001300000747        000000000000500001021300150000012487                                                01021302601 0
2200680000                                                                                        GEBABEBB                   1 0
2300680000BE36270011109381                  EURAUBRY-BODSON                                                                  0 1
31006800010001300000747        001500001001AUBRY-BODSON                                                                      1 0
3200680001DYNASTIELAAN 18 0101               8660 DE PANNE                                                                   0 0
21006900000001300000748        000000000000500001021300150000012488                                                01021302601 0
2200690000                                                                                        GKCCBEBB                   1 0
2300690000BE83063086153415                  EURRASMUSSEN RENILDA                                                             0 1
31006900010001300000748        001500001001RASMUSSEN RENILDA                                                                 1 0
3200690001LANGE LEEMSTRAAT 67                2018 ANTWERPEN                                                                  0 0
21007000000001300000749        000000000000500001021300150000012487                                                01021302601 0
2200700000                                                                                        GKCCBEBB                   1 0
2300700000BE55062319478044                  EURVAN GOGH HENDRIK                                                              0 1
31007000010001300000749        001500001001VAN GOGH HENDRIK                                                                  1 0
3200700001KLUIZEVELDENSTRAAT 82              2170 MERKSEM (ANTW.)                                                            0 0
8026001238122245 EUR0BE                  0000000070627650010213                                                                0
9               000346000000000000000000000002101000                                                                           1
0000001021320005                  VZW V.V.A.VLAAMSE VER.    GEBABEBB   00424419639 00000                                       2
10018001238121235 EUR0BE                  0000000010268310310113VZW V.V.A.VLAAMSE VER.                                       027
21000100000001300000039        000000000004000001021300150000012488                                                01021301801 0
2300010000063031040237 EUR                     DU BOIS LUCIENNE                                                              0 1
31000100010001300000039        001500001001DU BOIS LUCIENNE                                                                  1 0
3200010001ALBERTSTRAAT 1/21                  1500 HALLE                                                                      0 0
21000200000001300000040        0000000000020000010213001500000698447                                               01021301801 0
2300020000320045699501 EUR                     MEJ YOLANDA VAN BRABAND                                                       0 1
31000200010001300000040        001500001001MEJ YOLANDA VAN BRABAND                                                           1 0
3200020001WATERSTRAAT 23                     2440 GEEL                                                                       0 0
21000300000001300000041        0000000000010000010213001500000946947                                               01021301801 0
2300030000390040182307 EUR                     VAN CAUWENBERGE HERBERT                                                       0 1
31000300010001300000041        001500001001VAN CAUWENBERGE HERBERT                                                           1 0
3200030001SNOEKSTRAAT 51                     9000 GENT                                                                       0 0
21000400000001300000042        0000000000010000010213001500000927747                                               01021301801 0
2200040000                                                     OV-00005197-00107                  EURBBE99                   1 0
2300040000BE86671115039950                  EURTOUILLET LOUISA                                                               0 1
31000400010001300000042        001500001001TOUILLET LOUISA                                                                   1 0
3200040001MAURITS SABBESTRAAT 17/B4          9050 GENTBRUGGE                                                                 0 0
21000500000001300000043        0000000000006000010213001500000959247                                               01021301801 0
2300050000380003638985 EUR                     MEVR CHRISTIANE DE BEER                                                       0 1
31000500010001300000043        001500001001MEVR CHRISTIANE DE BEER                                                           1 0
3200050001BISSCHOPSDREEF 31                  8310 BRUGGE 3                                                                   0 0
8018001238121235 EUR0BE                  0000000010354310010213                                                                0
9               000023000000000000000000000000086000                                                                           1
0000001021320005                  VZW VLAAMSE VERENIGING    GEBABEBB   00424419639 00000                                       2
10023001216200043 EUR0BE                  0000000018652860310113VZW VLAAMSE VERENIGING                                       027
21000100000001300000187        0000000000040000010213001500000DOORLOPENDE OPDRACHT                                 01021302301 0
2300010000310000023429 EUR                     MEVR MARGARETHA HARTMAN                                                       0 1
31000100010001300000187        001500001001MEVR MARGARETHA HARTMAN                                                           1 0
3200010001TER BEKE 7                         8200 SINT-MICHIELS                                                              0 0
21000200000001300000188        0000000000030000010213001500000                                                     01021302301 0
2200020000                                                                                        HBKABE22                   1 0
2300020000BE43880315934101                  EURVERDOODT HERMAN                                                               0 1
31000200010001300000188        001500001001VERDOODT HERMAN                                                                   1 0
3200020001TERVUURSEVEST, 278                 3000 LEUVEN                                                                     0 0
21000300000001300000189        0000000000025000010213001500000HELPER VAN EEN KIND MET AUTISME                      01021302301 0
2300030000001615058787 EUR                     VAN HOUTTE-VELGE                                                              0 1
31000300010001300000189        001500001001VAN HOUTTE-VELGE                                                                  1 0
3200030001BEERBOSSTRAAT 11                   8554 ZWEVEGEM                                                                   0 0
21000400000001300000190        0000000000024790010213001500000                                                     01021302301 0
2300040000001095750594 EUR                     SCHELLEMANS MARIE CLAIRE                                                      0 1
31000400010001300000190        001500001001SCHELLEMANS MARIE CLAIRE                                                          1 0
3200040001JAN JANSSENSSTRAAT 10 1            2610 ANTWERPEN                                                                  0 0
21000500000001300000191        0000000000012390010213001500000THUISBEGELEIDINGSSESSIES                             01021302301 0
2300050000220041924042 EUR                     PEETERS PAUL                                                                  0 1
31000500010001300000191        001500001001PEETERS PAUL                                                                      1 0
3200050001GILL S DE P LICHYLEI 97            2970 'S GRAVENWEZEL                                                             0 0
21000600000001300000192        0000000000012390010213001500000THUISBEGELEIDING AUTISTISCH KIND                     01021302301 0
2200060000                                                                                        BPOTBEB1                   1 0
2300060000BE47000013064280                  EURDE JAEGER-VAN MOESEKE                                                         0 1
31000600010001300000192        001500001001DE JAEGER-VAN MOESEKE                                                             1 0
3200060001VOSKENSLAAN, 333                   9000 GENT                                                                       0 0
21000700000001300000193        0000000000012000010213001500000PERMANENT HELPER                                     01021302301 0
2300070000001038998120 EUR                     DUYVEJONCK JEANNE                                                             0 1
31000700010001300000193        001500001001DUYVEJONCK JEANNE                                                                 1 0
3200070001EENENBOOMLAAN 22                   1932 SINT-STEVENS-WOLUWE                                                        0 0
21000800000001300000194        0000000000012000010213001500000HELPER VAN EEN KIND MET AUTISME                      01021302301 0
2300080000310025011437 EUR                     MEVR ANNE LISE SMILDE                                                         0 1
31000800010001300000194        001500001001MEVR ANNE LISE SMILDE                                                             1 0
3200080001VARENBERG 25                       3080 VOSSEM                                                                     0 0
21000900000001300000195        0000000000012000010213001500000AANDEELHOUDERSCHAP AUTISMEFOON                       01021302301 0
2300090000390002445465 EUR                     MEVR ANISE GOETGEBUER                                                         0 1
31000900010001300000195        001500001001MEVR ANISE GOETGEBUER                                                             1 0
3200090001LINDEKOUTERSTRAAT 47               9030 MARIAKERKE                                                                 0 0
21001000000001300000196        0000000000012000010213001500000HELPER VAN EEN KIND MET AUTISME                      01021302301 0
2300100000001555190993 EUR                     WINSOL NV                                                                     0 1
31001000010001300000196        001500001001WINSOL NV                                                                         1 0
3200100001ROESELAARSESTRAAT 542              8870 IZEGEM                                                                     0 0
21001100000001300000197        0000000000011500010213001500000                                                     01021302301 0
2300110000140080993350 EUR                     DERIDDER-MOENS HUBERT                                                         0 1
31001100010001300000197        001500001001DERIDDER-MOENS HUBERT                                                             1 0
3200110001KERCHOVE D'EX.STR 104              1501 HALLE                                                                      0 0
21001200000001300000198        0000000000011500010213001500000                                                     01021302301 0
2300120000061880592046 EUR                     VAN DE WATER JOZEF                                                            0 1
31001200010001300000198        001500001001VAN DE WATER JOZEF                                                                1 0
3200120001PETER VERHAERTSTRAAT 3             2250 OLEN                                                                       0 0
21001300000001300000199        0000000000010730010213001500000                                                     01021302301 0
2300130000001066810343 EUR                     VAN LIEFFERINGE MAGDALENA                                                     0 1
31001300010001300000199        001500001001VAN LIEFFERINGE MAGDALENA                                                         1 0
3200130001BRUSSELSESTRAAT 19                 9500 GERAARDSBERGEN                                                             0 0
21001400000001300000200        0000000000010730010213001500000DOORLOPENDE OPDRACHT                                 01021302301 0
2300140000320029631550 EUR                     NELISSEN POELS PIERRE                                                         0 1
31001400010001300000200        001500001001NELISSEN POELS PIERRE                                                             1 0
3200140001AUGUST VAN PUTLEI 155              2150 BORSBEEK                                                                   0 0
21001500000001300000201        0000000000010000010213001500000PERMANENT HELPER                                     01021302301 0
2300150000001351970236 EUR                     DELHAYE ROGER                                                                 0 1
31001500010001300000201        001500001001DELHAYE ROGER                                                                     1 0
3200150001DANI L HERREYNSLAAN 79             2610 ANTWERPEN                                                                  0 0
21001600000001300000202        0000000000010000010213001500000HELPER VAN EEN KIND MET AUTISME                      01021302301 0
2300160000290031610806 EUR                     SCHOUPPE-VAN LIEFFERINGE                                                      0 1
31001600010001300000202        001500001001SCHOUPPE-VAN LIEFFERINGE                                                          1 0
3200160001LATEMSTRAAT 127                    9830 SINT-MARTENS-LATEM                                                         0 0
21001700000001300000203        0000000000010000010213001500000PERMANENT HELPER                                     01021302301 0
2300170000390185423336 EUR                     DESCHUYTTER VAN MARCKE MAR                                                    0 1
31001700010001300000203        001500001001DESCHUYTTER VAN MARCKE MAR                                                        1 0
3200170001GENTSESTEENWEG 42 BUS 3            9750 ZINGEM                                                                     0 0
21001800000001300000204        0000000000006000010213001500000HELPER VAN EEN KIND MET AUTISME                      01021302301 0
2300180000001147945991 EUR                     VAN RUYSKENSVELDE ANNY                                                        0 1
31001800010001300000204        001500001001VAN RUYSKENSVELDE ANNY                                                            1 0
3200180001KROMMESTRAAT 39                    9550 HERZELE                                                                    0 0
21001900000001300000205        0000000000006000010213001500000HELPER VAN EEN KIND MET AUTISME                      01021302301 0
2300190000290009816522 EUR                     DHUYGELAERE GLADIJS                                                           0 1
31001900010001300000205        001500001001DHUYGELAERE GLADIJS                                                               1 0
3200190001MARTELAARSLAAN 230                 9000 GENT                                                                       0 0
21002000000001300000206        0000000000006000010213001500000                                                     01021302301 0
2300200000001058754390 EUR                     HUYSMANS ANDRE                                                                0 1
31002000010001300000206        001500001001HUYSMANS ANDRE                                                                    1 0
3200200001WIJNGAARDBERG 61                   2170 ANTWERPEN                                                                  0 0
21002100000001300000207        0000000000006000010213001500000PERMANENTE HELPER                                    01021302301 0
2300210000310044039302 EUR                     DE H CORNELIS R ZWART                                                         0 1
31002100010001300000207        001500001001DE H CORNELIS R ZWART                                                             1 0
3200210001BERKENLAAN 21                      1950 KRAAINEM                                                                   0 0
21002200000001300000208        0000000000006000010213001500000DOORLOPENDE OPDRACHT                                 01021302301 0
2300220000320050521512 EUR                     MEVR MARIA WILLEMS                                                            0 1
31002200010001300000208        001500001001MEVR MARIA WILLEMS                                                                1 0
3200220001MOLENBAAN 14 BUS 34                2980 ZOERSEL                                                                    0 0
21002300000001300000209        0000000000006000010213001500000DOORLOPENDE OPDRACHT                                 01021302301 0
2300230000320057207640 EUR                     MEVR LILIANE VAN BOECKEL                                                      0 1
31002300010001300000209        001500001001MEVR LILIANE VAN BOECKEL                                                          1 0
3200230001GROTE MOLENWEG 131                 2940 STABROEK                                                                   0 0
21002400000001300000210        0000000000006000010213001500000PERMANENT HELPER                                     01021302301 0
2200240000                                                                                        BPOTBEB1                   1 0
2300240000BE02000108411240                  EURVERSCHRAEGEN                                                                  0 1
31002400010001300000210        001500001001VERSCHRAEGEN                                                                      1 0
3200240001LAAGLANDLAAN, 72                   2170 MERKSEM                                                                    0 0
21002500000001300000211        0000000000006000010213001500000PERMANENT HELPER                                     01021302301 0
2200250000                                                                                        BPOTBEB1                   1 0
2300250000BE70000044680725                  EURMEVR. LUCIENNE PHILIPS                                                        0 1
31002500010001300000211        001500001001MEVR. LUCIENNE PHILIPS                                                            1 0
3200250001BOEKWEITVELD, 9                    1970 WEZEMBEEK-OPPEM                                                            0 0
21002600000001300000212        0000000000005000010213001500000MAANDELIJKE GIFT                                     01021302301 0
2300260000001028032773 EUR                     VAN UYTSEL-PAUWELS                                                            0 1
31002600010001300000212        001500001001VAN UYTSEL-PAUWELS                                                                1 0
3200260001LIMBERG 91                         2230 HERSELT                                                                    0 0
21002700000001300000213        0000000000005000010213001500000MAANDELIJKSE STEUN                                   01021302301 0
2300270000001035213302 EUR                     VAN DE CASTEELE ANNE                                                          0 1
31002700010001300000213        001500001001VAN DE CASTEELE ANNE                                                              1 0
3200270001KASTEELDREEF 61                    2970 SCHILDE                                                                    0 0
21002800000001300000214        0000000000005000010213001500000HELPER VAN EEN KIND MET AUTISME                      01021302301 0
2200280000                                                                                        BPOTBEB1                   1 0
2300280000BE87000060973994                  EURDHR. DANIEL SABBE                                                             0 1
31002800010001300000214        001500001001DHR. DANIEL SABBE                                                                 1 0
3200280001HOOGSTRAAT, 176                    8800 RUMBEKE                                                                    0 0
21002900000001300000215        0000000000004960010213001500000                                                     01021302301 0
2300290000001069223522 EUR                     VANDERMAESEN-HUYBRIGHS                                                        0 1
31002900010001300000215        001500001001VANDERMAESEN-HUYBRIGHS                                                            1 0
3200290001ROZENSTRAAT 79                     3970 LEOPOLDSBURG                                                               0 0
21003000000001300000216        0000000000004000010213001500000PERMANENT HELPER                                     01021302301 0
2300300000001108787192 EUR                     JANSSENS ADRIANA                                                              0 1
31003000010001300000216        001500001001JANSSENS ADRIANA                                                                  1 0
3200300001RAGHENOPLEIN 31 1                  2800 MECHELEN                                                                   0 0
21003100000001300000217        0000000000003000010213001500000HELPER VAN EEN KIND MET AUTISME                      01021302301 0
2300310000001089313333 EUR                     BRABANDS LODEWIJK                                                             0 1
31003100010001300000217        001500001001BRABANDS LODEWIJK                                                                 1 0
3200310001JACOB LE MAIRESTRAAT 4 15          2020 ANTWERPEN                                                                  0 0
8023001216200043 EUR0BE                  0000000018994850010213                                                                0
9               000131000000000000000000000000341990                                                                           1
0000001021320005                  VZW V.V.A.VLAAMSE VER.    GEBABEBB   00424419639 00000                                       2
10017001238123255 EUR0BE                  0000000009525710310113VZW V.V.A.VLAAMSE VER.                                       027
21000100000001300000037        0000000000030000010213001500000                                                     01021301701 0
2200010000                                                                                        ARSPBE22                   1 0
2300010000BE05979972005275                  EURCATRY LEON                                                                    0 1
31000100010001300000037        001500001001CATRY LEON                                                                        1 0
320001000134 STEENAKKER                      8940 WERVIK                                                                     0 0
21000200000001300000038        0000000000025000010213001500000660747                                               01021301701 0
2200020000                                                                                        KREDBEBB                   1 0
2300020000BE59453605419126                  EURPRIEMEN-LEEMANS HUGO + CHRISTINA                                              0 1
31000200010001300000038        001500001001PRIEMEN-LEEMANS HUGO + CHRISTINA                                                  1 0
3200020001ROMEINSEWEG-BRUSTEM 22             3800 SINT-TRUIDEN                                                               0 0
21000300000001300000039        0000000000010000010213001500000GIFT                                                 01021301701 0
2300030000210026236734 EUR                     BAEKELMANS REMI                                                               0 1
31000300010001300000039        001500001001BAEKELMANS REMI                                                                   1 0
3200030001RENBAANLAAN 14                     1050 BRUSSEL                                                                    0 0
21000400000001300000040        0000000000003500010213001500000606547                                               01021301701 0
2300040000330085100679 EUR                     MEVR SIMONNE MATTYS                                                           0 1
31000400010001300000040        001500001001MEVR SIMONNE MATTYS                                                               1 0
3200040001STATIESTRAAT 45                    3290 DIEST                                                                      0 0
8017001238123255 EUR0BE                  0000000009594210010213                                                                0
9               000020000000000000000000000000068500                                                                           1
0000001021320005                  VZW V.V.A.VLAAMSE VER.    GEBABEBB   00424419639 00000                                       2
12012BE62001238123861                  EUR0000000131907510310113VZW V.V.A.VLAAMSE VER.                                       008
21000100000001300000351        0000000000050000010213001500000GIFT 2013 - GRAAG FISCAAL ATTEST AUB                 01021301201 0
2200010000                                                                                        BPOTBEB1                   1 0
2300010000BE38000084727072                  EURDHR. GEORGES VAN RISSEGHEM                                                    0 1
31000100010001300000351        001500001001DHR. GEORGES VAN RISSEGHEM                                                        1 0
3200010001MEERSSTRAAT, 102                   9000 GENT                                                                       0 0
21000200000001300000352        000000000004000031011300150000015531                                                01021301201 0
220002000013 BC NJ KESSEL-LO                                                                                                 1 0
2300020000001436543223 EUR                     FOQUE-COPPENS                                                                 0 1
31000200010001300000352        001500001001FOQUE-COPPENS                                                                     1 0
3200020001DUIVENSTRAAT 4                     3052 BLANDEN                                                                    0 0
21000300000001300000353        0000000000038000010213001500000LID 2013                                             01021301201 0
